:020000040800F2
:10000000980C002091010008990100089B0100084C
:100010009D0100089F010008A101000800000000E8
:10002000000000000000000000000000A301000824
:10003000A501000800000000A7010008A9010008B0
:10004000AB010008AB010008AB010008AB010008E0
:10005000AB010008AB010008AB010008AB010008D0
:10006000AB010008AB010008AB010008AB010008C0
:10007000AB010008AB010008AB010008AB010008B0
:10008000AB010008AB010008AB010008AB010008A0
:10009000AB010008AB010008AB010008AB01000890
:1000A000AB010008AB010008AB010008AB01000880
:1000B000D1090008AB010008AB010008AB01000842
:1000C000AB010008AB010008AB010008AB01000860
:1000D000AB010008350B0008850B0008D50B0008A4
:1000E000AB010008AB010008AB01000800F002F80A
:1000F00000F03FF80AA090E8000C82448344AAF183
:100100000107DA4501D100F034F8AFF2090EBAE880
:100110000F0013F0010F18BFFB1A43F0010318473B
:10012000B0180000D0180000103A24BF78C878C179
:10013000FAD8520724BF30C830C144BF04680C60ED
:10014000704700000023002400250026103A28BF35
:1001500078C1FBD8520728BF30C148BF0B60704739
:10016000642900F07780002070471FB51FBD10B5CF
:1001700010BD00F081F91146FFF7F7FF00F0F8FD20
:1001800000F09FF903B4FFF7F2FF03BC00F04AFD53
:100190000948804709480047FEE7FEE7FEE7FEE71B
:1001A000FEE7FEE7FEE7FEE7FEE7FEE70448054957
:1001B000054A064B7047000071090008ED00000871
:1001C00098060020980C002098080020980800202D
:1001D000704700000FB4044910B503AA029800F05C
:1001E000F5F810BC5DF814FB200000202DE9F0416B
:1001F0000E460446002020622046E168884730B35E
:10020000252805D0D4E901219047206A401CF2E757
:10021000E168204600278847050018D0A5F1410075
:10022000192802D820354FF4006732462946204667
:100230002760FFF795FF40B1012804D0F61D26F096
:1002400007060836D8E7361DD6E72846DAE7206ADB
:10025000BDE8F0812DE9F0410646002410687529BB
:10026000314616A510D0AFF30080002802DA4042D4
:1002700013A507E031688A0701D512A502E04907F6
:1002800004D511A5012401E0AFF3008000210A226A
:1002900006F1240709E0B0FBF2FCB0FBF2F302FB2D
:1002A0001C00303078541846491C0028F3D12346EE
:1002B0002A463046BDE8F04100F02EB800000000AC
:1002C0002D0000002B000000200000004FF0000275
:1002D0000429C0F0128010F0030C00F08B80CCF1E8
:1002E000040CBCF1020F18BF00F8012BA8BF20F8C6
:1002F000022BA1EB0C0100F07DB85FEAC17C24BFAA
:1003000000F8012B00F8012B48BF00F8012B7047C3
:1003100070477047704770472DE9F0470D46994682
:100320009246044600F124080168880604D5E06975
:1003300021F01001216000E00120A84201DD471BEF
:1003400000E00027A1697A1902EB0900081AA061F0
:100350002078C00602D42046AFF30080002608E0D3
:10036000D4E901211AF806009047206A401C761C47
:1003700020624E45F4DB2078C0060AD52046AFF354
:10038000008006E0D4E9012130209047206A401C1B
:100390002062381EA7F10107F4DC07E0D4E901214F
:1003A00018F805009047206A401C2062281EA5F11D
:1003B0000105F3DC2046AFF300802078000602D56B
:1003C0000220BDE8F0870120FBE70000074B70B575
:1003D0000D467B4400F039F80446284600F048F802
:1003E00010B14FF0FF3070BD204670BD23090000F2
:1003F0004FF0000200B5134694469646203922BFBE
:10040000A0E80C50A0E80C50B1F12001BFF4F7AF08
:10041000090728BFA0E80C5048BF0CC05DF804EBEA
:10042000890028BF40F8042B08BF704748BF20F858
:10043000022B11F0804F18BF00F8012B704700000D
:1004400001694A1C02610878704700B58FB0CDE998
:1004500001310021059105497944CDE90310114688
:100460006846FFF7C3FE0FB000BD0000E5FFFFFFC9
:10047000007B00F080007047754600F02BF8AE4618
:1004800005006946534620F00700854618B020B5A0
:10049000FFF78CFEBDE820404FF000064FF000074C
:1004A0004FF000084FF0000B21F00701AC46ACE81C
:1004B000C009ACE8C009ACE8C009ACE8C0098D4689
:1004C000704710B50446AFF300802046BDE81040E9
:1004D000FFF758BE0048704738060020454880693D
:1004E00040F00400434988614348006820F07040B0
:1004F000414908603F48806940F400703D49886187
:100500000846C06840F40070C8600846C06820F41F
:100510000070C8600846406820F4404048600846C3
:10052000406840F40040486034480068344908405E
:10053000324908600846006808600846006820F4F0
:1005400080700860081D006820F00200091D086026
:100550000846006820F4602008600846006840F4FF
:10056000602008600846006840F480100860084673
:10057000006820F40060086020482830006820F4FB
:1005800070001E49283108600846006808601B4852
:100590000C30006820F0030018490C310860084650
:1005A000006840F0380008601448001D006840F002
:1005B00001001249091D08600846006840F0080063
:1005C000086000BF0D48001D006800F0080000280A
:1005D000F8D10A48001D006840F004000749091DD1
:1005E000086000BF0548001D006800F004000028F6
:1005F000F8D1704700100240000801400424014077
:10060000FFFFF00010B500241548006820F47020AA
:10061000134908600846006840F40020086004E0C0
:10062000601CC4B2012000F049FB0E48006808B10C
:10063000642CF5DB642C01DB012010BD002404E0F8
:10064000601CC4B2012000F039FB0648006808B9FC
:10065000642CF5DB642C01DB0120EEE70020ECE7E5
:10066000000801401001214210B50D48806940F09A
:1006700004000B4988610B48006820F47020094988
:1006800008600846006840F4403008600846C068CA
:1006900040F40060C86000F069F8FFF7B3FF10BDD8
:1006A000001002400020014010B5002404E0601C4E
:1006B000C4B2012000F002FB0D48006808B1642CB0
:1006C000F5DB002404E0601CC4B2012000F0F6FA5F
:1006D0000748006808B9642CF5DB282000F0EEFA22
:1006E0000348006808B1012010BD0020FCE70000AD
:1006F0001001214270B50024002506E06006040EBA
:10070000FFF7D2FF0443681CC5B2082DF6DB204674
:1007100070BD7CB505460E4600F028F8FFF772FF65
:10072000F8B9002405E0FFF7E5FF0DF80400601CB0
:10073000C4B2052CF7DB9DF800009DF801100844B9
:100740009DF8021008449DF8031008449DF8041019
:10075000884208D19DF8000030709DF80200287092
:1007600001E001207CBD0020FCE7000010B50C4832
:10077000006820F470200A4908600846006840F4C8
:1007800040300860002007490860142000F078FA23
:1007900001200549C1F890011E2000F08FFA10BD1C
:1007A00000080140900121420000214201460F480B
:1007B000006820F01F000D4A1060104600680843D2
:1007C00010600A482C38006840F48000074A2C3A30
:1007D000106000BF05483438006800F002000028AF
:1007E000F8D002481830006880B2704734240140C5
:1007F00000BF0549098801F080010029F9D00249AC
:10080000091D0880704700000038014000BF0549FD
:10081000098801F080010029F9D00249091D0880EA
:10082000704700000044004000BF0549098801F0FE
:1008300080010029F9D00249091D08807047000095
:100840000048004000B5024603E012F8010BFFF734
:10085000CFFF10780028F8D100BD00B5024603E0B4
:1008600012F8010BFFF7D2FF10780028F8D100BD75
:1008700000B5024603E012F8010BFFF7D5FF107830
:100880000028F8D100BD10B500F002F810BD00003E
:100890000CB50020019000903348006840F480308F
:1008A0003149086000BF3048006800F40030009013
:1008B0000198401C0190009818B90198B0F5A06FFC
:1008C000F1D12948006800F4003010B101200090F7
:1008D00001E0002000900098012843D123480068DF
:1008E00040F01000214908600846006820F003002D
:1008F00008600846006840F0020008601A48406836
:10090000194948600846406848600846406840F415
:10091000806048600846406820F47C1048600846C3
:10092000406840F4E81048600846006840F0807075
:10093000086000BF0C48006800F000700028F9D083
:100940000948406820F003000749486008464068AD
:1009500040F00200486000BF0348406800F00C000F
:100960000828F9D10CBD0000001002400020024010
:1009700010B51348006840F00100114908600846AE
:100980004068104908400E494860084600680E4912
:1009900008400B4908600846006820F48020086081
:1009A0000846406820F4FE0048604FF41F0088604D
:1009B000FFF769FF4FF000600449086010BD0000B8
:1009C000001002400000FFF8FFFFF6FE08ED00E017
:1009D000184801880088401E164A108029B1104628
:1009E0000088012801D11449088014480188008832
:1009F000401E124A108029B110460088012801D1FA
:100A00000F4908800F4801880088401E0D4A108059
:100A100029B110460088012801D10B4908800B48F4
:100A20000068401C0949086000204FF0804108829E
:100A3000704700001C000020180000202A00002041
:100A400026000020300000202C0000201400002090
:100A500010B50948008801280CD108A0FFF7F2FE64
:100A60000020054908800B4908804FF400710A48AE
:100A7000FFF72CFC10BD0000180000207573617298
:100A8000743120676574206F6E6520646174612124
:100A90000D0A00001A0000203800002010B5094897
:100AA000008801280CD108A0FFF7D7FE00200549D7
:100AB00008800B4908804FF400710A48FFF706FCD4
:100AC00010BD00002600002075736172743220672B
:100AD0006574206F6E652064617461210D0A0000E9
:100AE000280000203802002010B50948008801289D
:100AF0000CD108A0FFF7BCFE0020054908800B4977
:100B000008804FF400710A48FFF7E0FB10BD0000B9
:100B10002C00002075736172743320676574206F38
:100B20006E652064617461210D0A00002E000020B2
:100B3000380400200E49098801F02001B1B10C49A8
:100B4000091D0988C8B20B49098879B90A49098879
:100B5000B1F5007F0ADA08490A880988491C064B62
:100B60001980064988540521054A11807047000004
:100B700000380140180000201A0000203800002032
:100B80001C0000200E49098801F02001B1B10C4978
:100B9000091D0988C8B20B49098879B90A49098829
:100BA000B1F5007F0ADA08490A880988491C064B12
:100BB0001980064988540521054A118070470000B4
:100BC00000440040260000202800002038020020B9
:100BD0002A0000200E49098801F02001B1B10C491A
:100BE000091D0988C8B20B49098879B90A490988D9
:100BF000B1F5007F0ADA08490A880988491C064BC2
:100C00001980064988540521054A11807047000063
:100C1000004800402C0000202E0000203804002056
:100C200030000020014600BF002070474FF0804098
:100C3000008820F001004FF08041088070470000DC
:100C40004FF0E021096921F004014FF0E022116129
:100C5000C21700EB5272C2F3C702074B1A70194653
:100C6000097801EB4102C2EBC1114FF6FF7202EAB3
:100C7000C101024A11807047320000203400002078
:100C800001460D4A12884A434FF0E0235A61002280
:100C90009A6101221A6100BF4FF0E022106900F052
:100CA00001021AB100F48032002AF5D000224FF080
:100CB000E0231A619A6170473400002001460D4A12
:100CC00012784A434FF0E0235A6100229A610122D0
:100CD0001A6100BF4FF0E022106900F001021AB162
:100CE00000F48032002AF5D000224FF0E0231A6190
:100CF0009A6170473200002000BF054A128802F056
:100D00004002002AF9D0C2B2014B1B1D1A80704765
:100D10000038014001461548C06940F00100134AFF
:100D2000D06141F61F409204108501EB81004FF61F
:100D3000FF7202EA40004FF08042908510468089A1
:100D400040F0010090811C200122824043099B0059
:100D500003F1E023C3F8002100BF4FF0804000887A
:100D600040F001004FF080421080704700100240B8
:100D70000520FFF7CFFF4FF4E13000F099FA4FF470
:100D8000E13000F0F7F84FF4E13000F0C1F948200D
:100D9000FFF756FFFFF7A2FB11A0FFF71BFA06E0D3
:100DA00015A0FFF717FA4FF4FA70FFF769FFFFF786
:100DB0005BFC0028F4D111E04FF07E5000F02EF8DB
:100DC0004FF07E5000F07EF84FF07E5000F0ACF80F
:100DD000FFF73EFEFFF762FEFFF786FEECE700003E
:100DE00073746D3332207379737465726E2073740B
:100DF0006172740D0A00000044485431312045727C
:100E0000726F720D0A0000004FF08040008840F0C1
:100E100001004FF0804108807047000070B5044623
:100E20002146154800F076FB054600F035FC1349D5
:100E30000968134A1268891A88421CD2FFF7F6FE25
:100E400010491148FFF765FCFFF7DEFF0E480078F8
:100E500030B90C48007818B90CA0FFF7BBF906E0D0
:100E600008480278084801780EA0FFF7B3F9034854
:100E700000680349086070BD00004843140000206A
:100E80000000002005000020040000206468743188
:100E900031207374696C6C20696E69742E2E2E0D6E
:100EA0000A00000074656D70657261747572653D4D
:100EB00025642C68756D69646974793D25640D0A33
:100EC0000000000070B504462146104800F022FBE7
:100ED000054600F0E1FB0E4909680E4A1268891ABE
:100EE000884211D2FFF7A2FE0720FFF75FFC0A49F4
:100EF0000880FFF789FF0848018808A0FFF76AF912
:100F0000034800680349086070BD000000004843C2
:100F100014000020080000200C000020666973689F
:100F20003D25640D0A00000070B5044621460A48BC
:100F300000F0F0FA054600F0AFFB08490968084ADE
:100F40001268891A884206D206A0FFF743F90348BF
:100F500000680349086070BD000048431400002089
:100F60001000002073686F775F746573740D0A0D4D
:100F70000A0D0A002DE9F05F04465F48806940F0E1
:100F800004005D4988615D48006820F470605B4939
:100F900008600846006840F4306008600846006851
:100FA00020F4704008600846006840F40040086083
:100FB0005148C06940F400304F49C861504800882A
:100FC00020F480504E490880081D008820F44050CD
:100FD000091D0880081F008840F00800091F0880CC
:100FE0000846008840F0040008800846008840F069
:100FF00020000880200100F08BFB804641464148DC
:1010000000F088FA0546284600F062FB86B23046BA
:1010100000F07EFB8046294600F05AFC07464FF65A
:10102000FF7000EA06164FF08341384600F084FB5B
:101030008146304600F06CFB8246494600F008FAD3
:10104000804600F045FB2E49091F08802620052216
:101050004FF0020CE0461346C3F1070BBBF1040F3F
:1010600002D94FF0040B01E0C3F1070BDA4603F19C
:10107000040BBBF1070F02D24FF0000B01E0A3F10C
:10108000030BD9464FF0010B0BFA0AFBABF1010B36
:101090000BEA0C0B0BFA09FB4FF0010E0EFA09FEDE
:1010A000AEF1010E0EEA080E4BEA0E0100BF002859
:1010B00009DA0A074FEA126C134A00F00F031B1FEC
:1010C00002F803C003E00A07130E104A135400BFCE
:1010D000262000F01F02012191404209920002F1F6
:1010E000E022C2F8001100BF0548008840F400501B
:1010F00003490880BDE8F09F00100240000801404D
:101100000C4400404054094C18ED00E000E400E0BD
:101110002DE9F05F04466048806940F008005E49B0
:1011200088615E48006820F470605C490860084689
:10113000006840F4306008600846006820F47040A1
:1011400008600846006840F4004008605248C069E2
:1011500040F480205049C8615148008820F48050F4
:101160004F490880081D008820F44050091D088060
:10117000081F008840F00800091F08800846008802
:1011800040F0040008800846008840F020000880F5
:10119000200100F0BDFA80464146424800F0BAF90D
:1011A0000546284600F094FA86B2304600F0B0FAC0
:1011B0008046294600F08CFB07464FF6FF7000EA98
:1011C00006164FF08341384600F0B6FA81463046A5
:1011D00000F09EFA8246494600F03AF9804600F057
:1011E00077FA2F49091F0880272005224FF0020CAB
:1011F0004FF003081346C3F1070BBBF1040F02D9EC
:101200004FF0040B01E0C3F1070BDA4603F1040BC6
:10121000BBF1070F02D24FF0000B01E0A3F1030B6B
:10122000D9464FF0010B0BFA0AFBABF1010B0BEAAD
:101230000C0B0BFA09FB4FF0010E0EFA09FEAEF192
:10124000010E0EEA080E4BEA0E0100BF002809DA73
:101250000A074FEA126C144A00F00F031B1F02F832
:1012600003C003E00A07130E104A135400BF2720DF
:1012700000F01F02012191404209920002F1E02298
:10128000C2F8001100BF0648008840F4005004492D
:101290000880BDE8F09F000000100240040C0140EF
:1012A0000C4800404054094C18ED00E000E400E018
:1012B0002DE9F05F04466048806940F004005E4913
:1012C00088615E48006820F0F0005C4908600846CC
:1012D000006840F0B00008600846006820F47060C4
:1012E00008600846006840F4006008605248806961
:1012F00040F48040504988615148008820F4805073
:101300004F490880081D008820F44050091D0880BE
:10131000081F008840F00800091F08800846008860
:1013200040F0040008800846008840F02000088053
:10133000200100F0EDF980464146424800F0EAF80D
:101340000546284600F0C4F986B2304600F0E0F9C0
:101350008046294600F0BCFA07464FF6FF7000EAC7
:1013600006164FF08341384600F0E6F981463046D4
:1013700000F0CEF98246494600F06AF8804600F057
:10138000A7F92F49091F0880252005224FF0020CDC
:101390004FF001081346C3F1070BBBF1040F02D94C
:1013A0004FF0040B01E0C3F1070BDA4603F1040B25
:1013B000BBF1070F02D24FF0000B01E0A3F1030BCA
:1013C000D9464FF0010B0BFA0AFBABF1010B0BEA0C
:1013D0000C0B0BFA09FB4FF0010E0EFA09FEAEF1F1
:1013E000010E0EEA080E4BEA0E0100BF002809DAD2
:1013F0000A074FEA126C144A00F00F031B1F02F891
:1014000003C003E00A07130E104A135400BF25203F
:1014100000F01F02012191404209920002F1E022F6
:10142000C2F8001100BF0648008840F4005004498B
:101430000880BDE8F09F0000001002400408014051
:101440000C3801404054894C18ED00E000E400E005
:1014500090EA010F48BF81F0004100F14A82421A30
:101460003CBF801A89184FEAD0524FF07F4C1CEADB
:10147000410FA2EBD15318BF9CEA026F00F03B80F2
:101480004FF0004C4CEA00204CEA012121FA03FC09
:1014900010EB0C0C1ED202F1FF325FEA1C2040EB75
:1014A000C25038BF70471CF07F0F4FEA400C18BF86
:1014B000BCF17F4F38BF7047C3F12003994008BF8C
:1014C00020F00100BCF17F4F38BF7047A0F1C04051
:1014D00000F0F9B94FEA3C00000A40EBC25028BFC7
:1014E0001CF0FF0F4FEA400CE6D018BFBCF17F4F55
:1014F00038BF7047EAE79CEA026F05D010EA5C0F3C
:1015000008BF00F00040704710B500F096F900BF2A
:1015100064FBBE3E4FF47F0C1CEAD0121EBF1CEAD7
:10152000D11392EA0C0F93EA0C0F00F0858090EA39
:10153000010F48BF42F4807240F4000C41F40000F7
:101540002CF07F4120F07F4000B58142A2EB0302E6
:101550000FF2081CACEB504EC0F100009EF800E00A
:101560004FEA4E0E00FB0EFC38BF49004FEA2C1C20
:1015700002F5FA020CFB0EF34FEACE1E4FEA112CD5
:101580004FEAC1210EEB635E42EB22420EFB0CFCE4
:101590004FEA1C5300FB03114FEA112C4FEA0131B3
:1015A0000EFB0CFC4FEADC4C00FB0C11C14228BFC7
:1015B00009184CEB03335DF804EB10EB410143EBEE
:1015C000C250B2F57C0F38BF704729D512F0F00F2A
:1015D0001CBF00F1C04000F00040704700818283D2
:1015E0008485868788898B8C8D8E8F919293959632
:1015F00097999A9C9D9FA0A2A3A5A7A8AAACAEB0BC
:10160000B2B3B5B7B9BCBEC0C2C5C7C9CCCED1D4C0
:10161000D7D9DCDFE2E6E9ECF0F3F7FAFE000000F0
:101620004FEA400C0CF1807CBCF17E4F28BF704724
:10163000B0F1C04000F047B990EA010F0CEAD113B5
:1016400048BF42F48072624538BF634507D213F445
:101650007F0F16D080EA010000F00040704710B5FF
:1016600000F0EBF8097EFC3E00F005B880EA0100CE
:1016700000F00040704780EA010000F0004000F0F8
:1016800022B912F47F0F04BF0248704780EA0100BC
:1016900000F019B90000C07F41000B0ED3F19E028B
:1016A00008D950F400034FEA032323FA02F048BF9D
:1016B0004042704710B500F0C0F800BF4992248046
:1016C000002070476FF0004282EA2000704700005F
:1016D000C10DD1F19E0206DB4FEA002343F0004327
:1016E00023FA02F07047004207D54FEA4001B1F1FA
:1016F000FE4F02D24FF00000704710B500F09DF889
:1017000049922480002070476FEA20007047000053
:10171000B0FA80F310FA03F2C3F19D030AD0D905A1
:1017200001EB1220530638BF704700F1010008BFDB
:1017300020F00100704700004FF47F0C1CEAD0122B
:101740001EBF1CEAD11392EA0C0F93EA0C0F00F0B3
:10175000478090EA010F48BF42F480724FF0004C7E
:101760004CEA00204CEA012102EB0302A0FB01132A
:10177000A2F50002002918BF43F001035B0028BF57
:101780004FEA330342EB22425FEA132C4CEBC25088
:101790002EBFBCEB436FB2F57C0F70474FEA036C72
:1017A000BCF1004F08BF20F00100B2F57C0F38BF3C
:1017B00070470BD582F0FF0212F5803FC8BF70471B
:1017C00000F1C040D8BF00F00040704700F5000CA9
:1017D0005FEA4C0C48BF7047B0F1C04000F073B8EE
:1017E00090EA010F0CEAD11348BF42F480726245BF
:1017F00038BF634504D280EA010000F00040704722
:1018000010B500F01AF800BF8900013E00F007B8DB
:1018100000F009B85FEA410C5FEA1C6C08D080EA6E
:10182000010000F050B85FEA400C5FEA1C6CF6D192
:101830004FF00040A0F5800070470EF1020E2EF030
:10184000030E5EF8044B244204D44FEA4102B2F185
:101850007F4F11D84FEA4003B3F17F4F0CD80ED120
:101860004FEAD07CB2F17F4F0CEB4C0C0CF1020C28
:1018700008BF4CEBD17C04E04FF0080C01E04FEACC
:10188000D17C0CEB4C0324FA03F404F00704B4F10C
:10189000040C06D20EEB840CBDE810404CF0010C99
:1018A0006047DFE80CF0070802024FF00040A0F5A7
:1018B000800010BD0846420018BFD2F1807288BF78
:1018C00000F0004010BDFF2141EAD050C005704734
:1018D00080F0004090EA010F7FF5C1AD81F000413A
:1018E00000F007B890EA010F48BF81F000413FF5D2
:1018F000B6AD421A04D882F00042A0EB02001144B7
:101900004FEAD0524FF07F4C1CEA410FA2EBD1536B
:1019100018BF9CEA026F4AD04FF0004C4CEA0020FE
:101920004CEA012121FA03FCB0EB0C0C0FD412F0AD
:10193000FE0F36D05FEA4C001DD5001240EBC250BE
:1019400038BF70471CF03F0F18BF70470BE0A2F183
:1019500001025FEA1C2040EBC25038BF70471CF008
:101960007F0F18BF7047C3F12003994014BF401E7A
:1019700020F00100704780084FEA122308BF70472B
:10198000B0FA80FCA2EB0C02CCF1280C60FA0CF04F
:1019900093EA122F04BF00EBC25070474FEAC370A6
:1019A0007047130A5FEADC1008BF7047F6E79CEA4D
:1019B000026F04D010EA5C0F08BF0020704710B51A
:1019C000FFF73BFF40DFF63E81F00040704700002C
:1019D000F01900080000002038000000280100086D
:1019E000281A000838000020600C0000440100089C
:1019F00000000000000000000000000000000000E7
:101A000000000000000000000000000000000000D6
:101A100000000000000000000000000000000000C6
:081A20000000000000000000BE
:04000005080000ED02
:00000001FF
